:100000000C9472000C9493000C9493000C94930045
:100010000C9493000C9493000C9493000C94930014
:100020000C9493000C9493000C9493000C94930004
:100030000C9493000C9493000C9493000C949300F4
:100040000C9493000C9493000C9493000C949300E4
:100050000C9493000C9493000C9493000C949300D4
:100060000C9493000C9493000C9493000C949300C4
:100070000C9493000C9493000C9493000C949300B4
:100080000C9493000C9493000C9493000C949300A4
:100090000C9493000C9493000C9493000C94930094
:1000A0000C9493000C9493000C9493000C94930084
:1000B0000C9493000C9493000C9493000C94930074
:1000C0000C9493000C9493000C9493000C94930064
:1000D0000C9493000C9493000C9493000C94930054
:1000E0000C94930011241FBECFEFD1E2DEBFCDBF31
:1000F00000E00CBF12E0A0E0B2E0EAE9FBE000E0C3
:100100000BBF02C007900D92AC30B107D9F712E0D7
:10011000ACE0B2E001C01D92AE32B107E1F70E943F
:1001200059030C94CB050C94000089EF90E00197E3
:10013000F1F700C000004098419880E388B9429AE6
:10014000E1EEF4E03197F1F700C000004298E9EFEA
:10015000F0E03197F1F700C000004098419888B96D
:10016000429AE1EEF4E03197F1F700C000004298C6
:10017000E9EFF0E03197F1F700C0000040984198B6
:1001800088B9429A81EE94E00197F1F700C000002F
:100190004298E9EFF0E03197F1F700C00000409895
:1001A000419880E288B9429A81EE94E00197F1F794
:1001B00000C000004298089598B19F7098B998B116
:1001C000282F207F922B98B940984198429AE1EECF
:1001D000F4E03197F1F700C00000429898B19F70A9
:1001E00098B998B18295807F892B88B940984198B9
:1001F000429A81EE94E00197F1F700C00000429826
:10020000089589EF90E00197F1F700C0000088E2BF
:100210000E94DC0081E00E94DC0086E00E94DC009D
:100220008EE00E94DC0080E80E94DC00089598B116
:100230009F7098B998B1282F207F922B98B9409A37
:100240004198429AE1EEF4E03197F1F700C00000E6
:10025000429898B19F7098B998B18295807F892B08
:1002600088B9409A4198429A81EE94E00197F1F75B
:1002700000C000004298089580E80E94DC000895C4
:10028000CF93DF93EC018881882331F021960E947F
:10029000170189918823D9F7DF91CF910895823092
:1002A00079F0833018F48130C9F405C0833069F0E7
:1002B0008430A1F40FC0862F81580E94DC0008957D
:1002C000862F81540E94DC000895862F8D560E944F
:1002D000DC000895862F8D520E94DC0008950F9354
:1002E0001F93CF93DF938A01E901882311F06623DE
:1002F00019F40E943C0102C00E944F01C530D10593
:1003000071F4C80160E177E20E94B705CB01C096A5
:1003100090931F0280931E020E94170103C0C430F5
:10032000D105B9F4C80168EE73E00E94B705CB01AE
:1003300070932102609320026AE070E00E94B7058A
:10034000C09690932D0280932C020E94170181E0A9
:1003500001C080E0C330D10511F08130B1F4C80193
:1003600064E670E00E94B705CB01709321026093B0
:1003700020026AE070E00E94B705C09690932902BF
:10038000809328020E94170181E0C230D10511F04C
:100390008130B1F42AE030E0C801B9010E94B7050C
:1003A000CB017093210260932002B9010E94B7052E
:1003B000C09690932602809325020E94170181E047
:1003C000C130D10511F0813061F4C8016AE070E0FC
:1003D0000E94B705C09690932B0280932A020E9438
:1003E0001701C630D1051CF085E40E941701DF918A
:1003F000CF911F910F91089587B1876F87B988B109
:10040000807888B9089510BA11BA10920701109235
:1004100008010895E1E2F1E010828FEF8093250159
:1004200091E0909324011092290180932801109269
:100430002B0180932A0110922D0180932C0189EACF
:10044000809320018BE080830895EAE7F0E010823A
:1004500010927B0080E280937C0080E880BF86E879
:1004600080830895883018F098E090937B0087701F
:10047000806280937C00EAE7F0E080818064808382
:10048000808184FFFDCF80917900EAE7F0E09081E0
:100490009061908310927B000895CF93DF93D82FC3
:1004A000C62F842F0E943202482F809322028D2F64
:1004B0006C2F50E023E030E00E946F01DF91CF917C
:1004C00008958093280160932A0108953B9A4398E8
:1004D000089581B18F6081B982B1807F82B9EAE0ED
:1004E000F1E0808188618083EBE0F1E080818861C8
:1004F0008083089592B1907F8F70982B92B9089560
:1005000086E00E947A02089580E00E947A020895AF
:1005100089E00E947A0208950E94FC010E94030271
:100520000E9469020E946602089586B1886088B9B7
:10053000089586B1877F88B90895E1ECF0E01082D4
:100540001092C00086E08093C2008FE58093C400C3
:100550001092C50088E9808308951F93CF93DF939D
:100560008032910531F1C6ECD0E01881188383E028
:100570000E94320280931C0282E00E943202809329
:100580001B0281E00E94320280931A0210921D0227
:1005900081E061E043E00E944D0281E065E042E0DD
:1005A0000E944D0281E069E041E00E944D0210325C
:1005B000E1F6DF91CF911F9108951F93CF93DF93C1
:1005C0008032910509F468C0C6ECD0E01881188328
:1005D00083E00E94320280931C0282E00E94320279
:1005E00080931B0281E00E94320280931A021092D3
:1005F0001D0281E061E043E00E944D0281E065E080
:1006000042E00E944D0281E069E041E00E944D021B
:1006100080911B02883248F481E080931D020E9481
:10062000880286E966E90E94610280911C02893293
:1006300068F080911D02882349F481E080931D02B7
:100640000E94880282E362E80E94610280911A029D
:10065000893268F080911D02882349F481E08093FB
:100660001D020E94880282E862E30E94610280917A
:100670001B02893270F080911C02893250F0809107
:100680001A02893230F00E94800280E060E00E940D
:100690006102103209F09ACFDF91CF911F91089536
:1006A000F8940E948C020E9425020E940A0278940B
:1006B00008950E9450030E9495000E9401010F2E90
:1006C000F8E28F2E9924F02D0F2EF2E16F2EF2E03A
:1006D0007F2EF02D06E983E00E94320280931C02F7
:1006E00082E00E94320280931B0281E00E9432026B
:1006F00080931A0210921D0281E061E043E00E94A3
:100700004D0281E065E042E00E944D0281E069E037
:1007100041E00E944D0290921902809218021091BD
:100720001C02183228F4109314021092150206C00D
:1007300080911A0280931402109215028091140283
:1007400090911502B401681B790B709317026093A6
:100750001602C0911002D0911102C60FD71FD0937C
:100760001102C093100280910C0290910D025B0166
:10077000A81AB90AB0920F02A0920E0270930D024D
:1007800060930C02882777FD8095982F0E94C804FB
:10079000209108023091090240910A0250910B0207
:1007A0000E9454056B017C01BE01882777FD80956E
:1007B000982F0E94C80420910402309105024091B4
:1007C0000602509107020E9454059B01AC01C7012B
:1007D000B6010E9431046B017C01B501882777FDC9
:1007E0008095982F0E94C804209100023091010248
:1007F00040910202509103020E9454059B01AC01FA
:10080000C701B6010E9431040E949504DC01CB01AE
:100810009093130280931202183280F40E94800297
:10082000F3018081602F681B8A560E94610287EA6B
:1008300091E60197F1F700C000004DCF0E948002C1
:10084000F3018081682F6A56F02FF81B8F2F0E94CA
:10085000610287EA91E60197F1F700C000003BCF03
:100860005058BB27AA270ED0E5C0D6D030F0DBD039
:1008700020F031F49F3F11F41EF4CBC00EF4E0954C
:10088000E7FBC1C0E92FE7D080F3BA17620773070F
:100890008407950718F071F49EF5FFC00EF4E095FB
:1008A0000B2EBA2FA02D0B01B90190010C01CA012A
:1008B000A0011124FF27591B99F0593F50F4503ED5
:1008C00068F11A16F040A22F232F342F4427585FC7
:1008D000F3CF469537952795A795F0405395C9F7DF
:1008E0007EF41F16BA0B620B730B840BBAF0915097
:1008F000A1F0FF0FBB1F661F771F881FC2F70EC036
:10090000BA0F621F731F841F48F487957795679508
:10091000B795F7959E3F08F0B3CF9395880F08F0F1
:100920009927EE0F97958795089504D06894B11193
:10093000B5C0089598D088F09F5790F0B92F9927A7
:10094000B751A0F0D1F0660F771F881F991F1AF0DA
:10095000BA95C9F712C0B13081F09FD0B1E00895C7
:100960009CC0672F782F8827B85F39F0B93FCCF348
:10097000869577956795B395D9F73EF490958095D0
:10098000709561957F4F8F4F9F4F0895E89409C0F0
:1009900097FB3EF490958095709561957F4F8F4FB2
:1009A0009F4F9923A9F0F92F96E9BB279395F695C8
:1009B000879577956795B795F111F8CFFAF4BB0F46
:1009C00011F460FF1BC06F5F7F4F8F4F9F4F16C0AA
:1009D000882311F096E911C0772321F09EE8872F34
:1009E000762F05C0662371F096E8862F70E060E0F0
:1009F0002AF09A95660F771F881FDAF7880F969569
:100A0000879597F9089597F99F6780E870E060E00F
:100A100008959FEF80EC089500240A941616170697
:100A200018060906089500240A94121613061406DF
:100A300005060895092E0394000C11F4882352F042
:100A4000BB0F40F4BF2B11F460FF04C06F5F7F4FFA
:100A50008F4F9F4F089557FD9058440F551F59F0E1
:100A60005F3F71F04795880F97FB991F61F09F3F9B
:100A700079F087950895121613061406551FF2CFC4
:100A80004695F1DF08C0161617061806991FF1CF14
:100A900086957105610508940895E894BB2766273B
:100AA0007727CB0197F908950BD0C4CFB5DF28F095
:100AB000BADF18F0952309F0A6CFABCF1124EECF03
:100AC000CADFA0F3959FD1F3950F50E0551F629FA9
:100AD000F001729FBB27F00DB11D639FAA27F00D97
:100AE000B11DAA1F649F6627B00DA11D661F829FBE
:100AF0002227B00DA11D621F739FB00DA11D621FA3
:100B0000839FA00D611D221F749F3327A00D611DBF
:100B1000231F849F600D211D822F762F6A2F1124A1
:100B20009F5750408AF0E1F088234AF0EE0FFF1FF4
:100B3000BB1F661F771F881F91505040A9F79E3F2B
:100B4000510570F060CFAACF5F3FECF3983EDCF325
:100B5000869577956795B795F795E7959F5FC1F768
:100B6000FE2B880F911D9695879597F90895AA1BDE
:100B7000BB1B51E107C0AA1FBB1FA617B70710F088
:100B8000A61BB70B881F991F5A95A9F780959095BA
:0A0B9000BC01CD010895F894FFCFD9
:0C0B9A000000003FCDCCCC3D0000803FAF
:00000001FF
