:100000000C9472000C9493000C9493000C94930045
:100010000C9493000C9493000C9493000C94930014
:100020000C9493000C9493000C9493000C94930004
:100030000C9493000C9493000C9493000C949300F4
:100040000C9493000C9493000C9493000C949300E4
:100050000C9493000C9493000C9493000C949300D4
:100060000C9493000C94AD020C9493000C949300A8
:100070000C9493000C9493000C9493000C949300B4
:100080000C9493000C9493000C9493000C949300A4
:100090000C9493000C9493000C9493000C94930094
:1000A0000C9493000C9493000C9493000C94930084
:1000B0000C9493000C9493000C9493000C94930074
:1000C0000C9493000C9493000C9493000C94930064
:1000D0000C9493000C9493000C9493000C94930054
:1000E0000C94930011241FBECFEFD1E2DEBFCDBF31
:1000F00000E00CBF12E0A0E0B2E0ECE2FFE000E0C4
:100100000BBF02C007900D92A031B107D9F712E0E2
:10011000A0E1B2E001C01D92A334B107E1F70E9453
:1001200064040C9494070C94000089EF90E001970C
:10013000F1F700C000004098419880E388B9429AE6
:10014000E1EEF4E03197F1F700C000004298E9EFEA
:10015000F0E03197F1F700C000004098419888B96D
:10016000429AE1EEF4E03197F1F700C000004298C6
:10017000E9EFF0E03197F1F700C0000040984198B6
:1001800088B9429A81EE94E00197F1F700C000002F
:100190004298E9EFF0E03197F1F700C00000409895
:1001A000419880E288B9429A81EE94E00197F1F794
:1001B00000C000004298089598B19F7098B998B116
:1001C000282F207F922B98B940984198429AE1EECF
:1001D000F4E03197F1F700C00000429898B19F70A9
:1001E00098B998B18295807F892B88B940984198B9
:1001F000429A81EE94E00197F1F700C00000429826
:10020000089589EF90E00197F1F700C0000088E2BF
:100210000E94DC0081E00E94DC0086E00E94DC009D
:100220008EE00E94DC0080E80E94DC00089598B116
:100230009F7098B998B1282F207F922B98B9409A37
:100240004198429AE1EEF4E03197F1F700C00000E6
:10025000429898B19F7098B998B18295807F892B08
:1002600088B9409A4198429A81EE94E00197F1F75B
:1002700000C000004298089580E80E94DC000895C4
:10028000CF93DF93EC018881882331F021960E947F
:10029000170189918823D9F7DF91CF910895823092
:1002A00079F0833018F48130C9F405C0833069F0E7
:1002B0008430A1F40FC0862F81580E94DC0008957D
:1002C000862F81540E94DC000895862F8D560E944F
:1002D000DC000895862F8D520E94DC0008950F9354
:1002E0001F93CF93DF938A01E901882311F06623DE
:1002F00019F40E943C0102C00E944F01C530D10593
:1003000071F4C80160E177E20E948007CB01C096DA
:1003100090933102809330020E94170103C0C430D1
:10032000D105B9F4C80168EE73E00E948007CB01E3
:1003300070933302609332026AE070E00E9480079B
:10034000C09690934202809341020E94170181E07F
:1003500001C080E0C330D10511F08130B1F4C80193
:1003600064E670E00E948007CB01709333026093D3
:1003700032026AE070E00E948007C09690933E02CD
:1003800080933D020E94170181E0C230D10511F037
:100390008130B1F42AE030E0C801B9010E94800741
:1003A000CB017093330260933202B9010E9480073F
:1003B000C09690933802809337020E94170181E023
:1003C000C130D10511F0813061F4C8016AE070E0FC
:1003D0000E948007C0969093400280933F020E9443
:1003E0001701C630D1051CF085E40E941701DF918A
:1003F000CF911F910F91089587B1876F87B988B109
:10040000807888B9089510BA11BA10920701109235
:1004100008010895E1E2F1E010828FEF8093250159
:1004200091E0909324011092290180932801109269
:100430002B0180932A0110922D0180932C0189EACF
:10044000809320018BE080830895EAE7F0E010823A
:1004500010927B0080E280937C0080E880BF86E879
:1004600080830895883018F098E090937B0087701F
:10047000806280937C00EAE7F0E080818064808382
:10048000808184FFFDCF80917900EAE7F0E09081E0
:100490009061908310927B000895CF93DF93D82FC3
:1004A000C62F842F0E943202482F809334028D2F52
:1004B0006C2F50E023E030E00E946F01DF91CF917C
:1004C00008958093280160932A0108953B9A4398E8
:1004D000089581B18F6081B982B1807F82B9EAE0ED
:1004E000F1E0808188618083EBE0F1E080818861C8
:1004F0008083089592B1907F8F70982B92B9089560
:1005000086E00E947A02089580E00E947A020895AF
:1005100089E00E947A0208950E94FC010E94030271
:100520000E9469020E946602089586B1886088B9B7
:10053000089586B1877F88B90895E1ECF0E01082D4
:100540001092C00086E08093C2008FE58093C400C3
:100550001092C50088E9808308951F920F920FB60C
:100560000F920BB60F921124CF92DF92EF92FF926F
:100570002F933F934F935F936F937F938F939F93AB
:10058000AF93BF93CF93DF93EF93FF93C6ECD0E08D
:10059000688170E080E090E00E946B066B017C0156
:1005A0006093390270933A0280933B0290933C022D
:1005B0000E943F066883C701B60120E030E044E4B2
:1005C00052E40E943B06882341F560910B02709132
:1005D0000C0280910D0290910E0220E030E040E08C
:1005E0005FE30E94D705262F372FF82FE92F462FDC
:1005F000572F682F792F40930B0250930C02609372
:100600000D0270930E02822F932FAF2FBE2FBC01CD
:10061000CD010E943F066093C6006091390270913F
:100620003A0280913B0290913C0220E030E048E4A5
:1006300052E40E943B06882341F560910B027091C1
:100640000C0280910D0290910E0220E030E040E01B
:100650005FE30E94D605262F372FF82FE92F462F6C
:10066000572F682F792F40930B0250930C02609301
:100670000D0270930E02822F932FAF2FBE2FBC015D
:10068000CD010E943F066093C600609139027091CF
:100690003A0280913B0290913C0220E030E04CE431
:1006A00052E40E943B06882341F560910302709159
:1006B000040280910502909106022DEC3CEC4CE482
:1006C0005DE30E94D705262F372FF82FE92F462FFD
:1006D000572F682F792F40930302509304026093A1
:1006E000050270930602822F932FAF2FBE2FBC01FD
:1006F000CD010E943F066093C6006091390270915F
:100700003A0280913B0290913C0220E030E040E5CB
:1007100052E40E943B06882341F5609103027091E8
:10072000040280910502909106022DEC3CEC4CE411
:100730005DE30E94D605262F372FF82FE92F462F8D
:10074000572F682F792F4093030250930402609330
:10075000050270930602822F932FAF2FBE2FBC018C
:10076000CD010E943F066093C600609139027091EE
:100770003A0280913B0290913C0220E030E044E557
:1007800052E40E943B06882341F560910702709174
:1007900008028091090290910A022AE037ED43E2B3
:1007A0005CE30E94D705262F372FF82FE92F462F1D
:1007B000572F682F792F40930702509308026093B8
:1007C000090270930A02822F932FAF2FBE2FBC0114
:1007D000CD010E943F066093C6006091390270917E
:1007E0003A0280913B0290913C0220E030E048E5E3
:1007F00052E40E943B06882341F560910702709104
:1008000008028091090290910A022AE037ED43E242
:100810005CE30E94D605262F372FF82FE92F462FAD
:10082000572F682F792F4093070250930802609347
:10083000090270930A02822F932FAF2FBE2FBC01A3
:10084000CD010E943F066093C6006091390270910D
:100850003A0280913B0290913C0220E030E04CE56E
:1008600052E40E943B06882349F480910102909152
:10087000020201969093020280930102FF91EF9190
:10088000DF91CF91BF91AF919F918F917F916F91A8
:100890005F914F913F912F91FF90EF90DF90CF901C
:1008A0000F900BBE0F900FBE0F901F901895F894ED
:1008B0000E948C020E949D020E9425020E9401015A
:1008C0000E940A02789408950E9457040E9495009D
:1008D0000E9401010F2EF0E02F2EF0E03F2EF0E2FB
:1008E0004F2EF2E45F2EF02DC091000283E00E94B3
:1008F0003202C81BC0932E02C091000282E00E9407
:100900003202C81BC0932D02C091000281E00E94F8
:100910003202C81BC0932C0210922F0281E061E0CA
:1009200043E00E944D0281E065E042E00E944D02FA
:1009300081E069E041E00E944D022092280230925D
:10094000290240922A0250922B0270902E0220918E
:100950002D0230E08091010290910202289FB001A7
:10096000299F700D389F700D1124671971098091AE
:100970002C02680F711D882777FD8095982F0E94A3
:100980006D066B017C0160932002709321028093BD
:1009900022029093230220E030E0A9010E943B064E
:1009A00088238CF4C201B101A70196010E94D605EB
:1009B000DC01CB018093240290932502A0932602B0
:1009C000B093270210C0C701B601A20191010E9495
:1009D000D605DC01CB018093240290932502A093DD
:1009E0002602B0932702C0902402D0902502E09006
:1009F0002602F0902702C701B6012091180230911B
:100A0000190240911A0250911B020E94D705D62F5D
:100A1000C72F182F092F862F9C2FA12FB02F80931F
:100A2000180290931902A0931A02B0931B02C701F7
:100A3000B6012091100230911102409112025091A2
:100A400013020E94D605B62EA72E982E892E862F29
:100A50009A2DA92DB82D8093140290931502A0937E
:100A60001602B0931702C0921002D0921102E092C7
:100A70001202F0921302C701B60120910B023091CD
:100A80000C0240910D0250910E020E941D076B0155
:100A90007C018D2F9C2FA12FB02FBC01CD01209167
:100AA0000702309108024091090250910A020E9407
:100AB0001D079B01AC01C701B6010E94D7056B0160
:100AC0007C018B2D9A2DA92DB82DBC01CD01209133
:100AD00003023091040240910502509106020E94E7
:100AE0001D079B01AC01C701B6010E94D705DC01BF
:100AF000CB0180931C0290931D02A0931E02B09321
:100B00001F0287E2871548F10E948002C0901C02F4
:100B1000D0901D02E0901E02F0901F02C701B601A6
:100B200020E030E048E453E40E94D7050E943F06ED
:100B3000C62F60E070E088E493E4A70196010E946C
:100B4000D6050E943F068C2F0E94610283EC99E03B
:100B50000197F1F700C00000C7CE0E948002C0904C
:100B60001C02D0901D02E0901E02F0901F0260E077
:100B700070E088E493E4A70196010E94D6050E94E4
:100B80003F06C62FC701B60120E030E048E453E439
:100B90000E94D7050E943F068C2F0E94610283ECC1
:100BA00099E00197F1F700C000009ECE5058BB2796
:100BB000AA270ED008C1F9D030F0FED020F031F4D1
:100BC0009F3F11F41EF4EEC00EF4E095E7FBE4C085
:100BD000E92F0AD180F3BA176207730784079507D4
:100BE00018F071F49EF522C10EF4E0950B2EBA2F89
:100BF000A02D0B01B90190010C01CA01A001112423
:100C0000FF27591B99F0593F50F4503E68F11A16CE
:100C1000F040A22F232F342F4427585FF3CF46955F
:100C200037952795A795F0405395C9F77EF41F1681
:100C3000BA0B620B730B840BBAF09150A1F0FF0F4B
:100C4000BB1F661F771F881FC2F70EC0BA0F621F37
:100C5000731F841F48F4879577956795B795F79527
:100C60009E3F08F0B3CF9395880F08F09927EE0FB9
:100C70009795879508956CD008F481E00895BCD0CD
:100C800088F09F5790F0B92F9927B751A0F0D1F075
:100C9000660F771F881F991F1AF0BA95C9F712C0FF
:100CA000B13081F0C3D0B1E00895C0C0672F782F74
:100CB0008827B85F39F0B93FCCF38695779567956B
:100CC000B395D9F73EF490958095709561957F4FD7
:100CD0008F4F9F4F0895E89409C097FB3EF490957D
:100CE0008095709561957F4F8F4F9F4F9923A9F005
:100CF000F92F96E9BB279395F69587957795679594
:100D0000B795F111F8CFFAF4BB0F11F460FF1BC0D7
:100D10006F5F7F4F8F4F9F4F16C0882311F096E96A
:100D200011C0772321F09EE8872F762F05C0662318
:100D300071F096E8862F70E060E02AF09A95660FD1
:100D4000771F881FDAF7880F9695879597F908958A
:100D5000990F0008550FAA0BE0E8FEEF16161706CC
:100D6000E807F907C0F012161306E407F50798F034
:100D7000621B730B840B950B39F40A2661F0232B4D
:100D8000242B252B21F408950A2609F4A140A695C9
:100D90008FEF811D811D089597F99F6780E870E0AE
:100DA00060E008959FEF80EC089500240A941616E1
:100DB000170618060906089500240A941216130649
:100DC000140605060895092E0394000C11F48823D7
:100DD00052F0BB0F40F4BF2B11F460FF04C06F5FF3
:100DE0007F4F8F4F9F4F089557FD9058440F551FC9
:100DF00059F05F3F71F04795880F97FB991F61F09D
:100E00009F3F79F087950895121613061406551F13
:100E1000F2CF4695F1DF08C0161617061806991F7F
:100E2000F1CF86957105610508940895E894BB2774
:100E300066277727CB0197F908950BD0C4CFB5DF8C
:100E400028F0BADF18F0952309F0A6CFABCF112414
:100E5000EECFCADFA0F3959FD1F3950F50E0551F59
:100E6000629FF001729FBB27F00DB11D639FAA27FF
:100E7000F00DB11DAA1F649F6627B00DA11D661F4E
:100E8000829F2227B00DA11D621F739FB00DA11D6F
:100E9000621F839FA00D611D221F749F3327A00D29
:100EA000611D231F849F600D211D822F762F6A2FC5
:100EB00011249F5750408AF0E1F088234AF0EE0F4A
:100EC000FF1FBB1F661F771F881F91505040A9F757
:100ED0009E3F510570F060CFAACF5F3FECF3983E84
:100EE000DCF3869577956795B795F795E7959F5FBE
:100EF000C1F7FE2B880F911D9695879597F9089558
:100F0000AA1BBB1B51E107C0AA1FBB1FA617B7072F
:100F100010F0A61BB70B881F991F5A95A9F780954B
:0C0F20009095BC01CD010895F894FFCF1E
:100F2C00FF04009A99193FB81E853E0000804000CE
:00000001FF
