:100000000C9472000C9493000C9493000C94930045
:100010000C9493000C9493000C9493000C94930014
:100020000C9493000C9493000C9493000C94930004
:100030000C9493000C9493000C9493000C949300F4
:100040000C9493000C9493000C9493000C949300E4
:100050000C9493000C9493000C9493000C949300D4
:100060000C9493000C94AD020C9493000C949300A8
:100070000C9493000C9493000C9493000C949300B4
:100080000C9493000C9493000C9493000C949300A4
:100090000C9493000C9493000C9493000C94930094
:1000A0000C9493000C9493000C9493000C94930084
:1000B0000C9493000C9493000C9493000C94930074
:1000C0000C9493000C9493000C9493000C94930064
:1000D0000C9493000C9493000C9493000C94930054
:1000E0000C94930011241FBECFEFD1E2DEBFCDBF31
:1000F00000E00CBF12E0A0E0B2E0E8E8FCE000E0C5
:100100000BBF02C007900D92AC30B107D9F712E0D7
:10011000ACE0B2E001C01D92AC33B107E1F70E9440
:1001200089030C9442060C94000089EF90E001973B
:10013000F1F700C000004098419880E388B9429AE6
:10014000E1EEF4E03197F1F700C000004298E9EFEA
:10015000F0E03197F1F700C000004098419888B96D
:10016000429AE1EEF4E03197F1F700C000004298C6
:10017000E9EFF0E03197F1F700C0000040984198B6
:1001800088B9429A81EE94E00197F1F700C000002F
:100190004298E9EFF0E03197F1F700C00000409895
:1001A000419880E288B9429A81EE94E00197F1F794
:1001B00000C000004298089598B19F7098B998B116
:1001C000282F207F922B98B940984198429AE1EECF
:1001D000F4E03197F1F700C00000429898B19F70A9
:1001E00098B998B18295807F892B88B940984198B9
:1001F000429A81EE94E00197F1F700C00000429826
:10020000089589EF90E00197F1F700C0000088E2BF
:100210000E94DC0081E00E94DC0086E00E94DC009D
:100220008EE00E94DC0080E80E94DC00089598B116
:100230009F7098B998B1282F207F922B98B9409A37
:100240004198429AE1EEF4E03197F1F700C00000E6
:10025000429898B19F7098B998B18295807F892B08
:1002600088B9409A4198429A81EE94E00197F1F75B
:1002700000C000004298089580E80E94DC000895C4
:10028000CF93DF93EC018881882331F021960E947F
:10029000170189918823D9F7DF91CF910895823092
:1002A00079F0833018F48130C9F405C0833069F0E7
:1002B0008430A1F40FC0862F81580E94DC0008957D
:1002C000862F81540E94DC000895862F8D560E944F
:1002D000DC000895862F8D520E94DC0008950F9354
:1002E0001F93CF93DF938A01E901882311F06623DE
:1002F00019F40E943C0102C00E944F01C530D10593
:1003000071F4C80160E177E20E942E06CB01C0962D
:1003100090932D0280932C020E94170103C0C430D9
:10032000D105B9F4C80168EE73E00E942E06CB0136
:1003300070932F0260932E026AE070E00E942E06F6
:10034000C09690933B0280933A020E94170181E08D
:1003500001C080E0C330D10511F08130B1F4C80193
:1003600064E670E00E942E06CB0170932F0260932A
:100370002E026AE070E00E942E06C096909337022B
:10038000809336020E94170181E0C230D10511F03E
:100390008130B1F42AE030E0C801B9010E942E0694
:1003A000CB0170932F0260932E02B9010E942E069A
:1003B000C09690933402809333020E94170181E02B
:1003C000C130D10511F0813061F4C8016AE070E0FC
:1003D0000E942E06C09690933902809338020E94A4
:1003E0001701C630D1051CF085E40E941701DF918A
:1003F000CF911F910F91089587B1876F87B988B109
:10040000807888B9089510BA11BA10920701109235
:1004100008010895E1E2F1E010828FEF8093250159
:1004200091E0909324011092290180932801109269
:100430002B0180932A0110922D0180932C0189EACF
:10044000809320018BE080830895EAE7F0E010823A
:1004500010927B0080E280937C0080E880BF86E879
:1004600080830895883018F098E090937B0087701F
:10047000806280937C00EAE7F0E080818064808382
:10048000808184FFFDCF80917900EAE7F0E09081E0
:100490009061908310927B000895CF93DF93D82FC3
:1004A000C62F842F0E943202482F809330028D2F56
:1004B0006C2F50E023E030E00E946F01DF91CF917C
:1004C00008958093280160932A0108953B9A4398E8
:1004D000089581B18F6081B982B1807F82B9EAE0ED
:1004E000F1E0808188618083EBE0F1E080818861C8
:1004F0008083089592B1907F8F70982B92B9089560
:1005000086E00E947A02089580E00E947A020895AF
:1005100089E00E947A0208950E94FC010E94030271
:100520000E9469020E946602089586B1886088B9B7
:10053000089586B1877F88B90895E1ECF0E01082D4
:100540001092C00086E08093C2008FE58093C400C3
:100550001092C50088E9808308951F920F920FB60C
:100560000F920BB60F9211242F933F934F935F93EB
:100570006F937F938F939F93AF93BF93CF93EF939B
:10058000FF93E6ECF0E0C081C0933502C083809118
:1005900029028083C135C9F4609108027091090273
:1005A00080910A0290910B0220E030E040E05FE38E
:1005B0000E94AD04DC01CB018093080290930902F4
:1005C000A0930A02B0930B024EC0C73789F5609121
:1005D00008027091090280910A0290910B0220E0BA
:1005E00030E040E05FE30E94AC04DC01CB0180938B
:1005F000080290930902A0930A02B0930B02609143
:1006000000027091010280910202909103022DEC90
:100610003CEC4CE45DE30E94AD04DC01CB01809333
:10062000000290930102A0930202B093030236C02D
:10063000C337C9F4609100027091010280910202F7
:10064000909103022DEC3CEC4CE45DE30E94AC0481
:10065000DC01CB018093000290930102A09302027F
:10066000B093030235C0C536C9F46091040270919D
:10067000050280910602909107022AE037ED43E2DD
:100680005CE30E94AD04DC01CB01809304029093F3
:100690000502A0930602B09307021AC0C237C1F444
:1006A0006091040270910502809106029091070208
:1006B0002AE037ED43E25CE30E94AC04DC01CB01AD
:1006C0008093040290930502A0930602B093070260
:1006D000FF91EF91CF91BF91AF919F918F917F91BA
:1006E0006F915F914F913F912F910F900BBE0F90A3
:1006F0000FBE0F901F901895F8940E948C020E94D4
:100700009D020E9425020E9401010E940A02789423
:1007100008950E947C030E9495000E9401010E949E
:100720009D0283E00E94320280932A0282E00E94AE
:1007300032028093290281E00E94320280932802D3
:1007400010922B0281E061E043E00E944D0281E0C3
:1007500065E042E00E944D0281E069E041E00E94D4
:100760004D0280E090E0A0E2B2E4809324029093F6
:100770002502A0932602B093270280912902883295
:1007800018F48195809329026091290270E080918C
:100790002A02681B710980912802680F711D882741
:1007A00077FD8095982F0E943F059B01AC016093D7
:1007B0001C0270931D0280931E0290931F0260E042
:1007C00070E080E292E40E94AC04162FD72FC82F6D
:1007D000C92E862F9D2FAC2FBC2D80932002909385
:1007E0002102A0932202B0932302BC01CD012091EB
:1007F00014023091150240911602509117020E9486
:10080000AD04F62E072FE82ED92E862F902FAE2D71
:10081000BD2D8093140290931502A0931602B093FD
:100820001702812F9D2FAC2FBC2DBC01CD01209133
:100830000C0230910D0240910E0250910F020E9465
:10084000AC04762E672E582E492E862F962DA52D78
:10085000B42D8093100290931102A0931202B093D2
:100860001302812F9D2FAC2FBC2D80930C029093EF
:100870000D02A0930E02B0930F02BC01CD01209196
:1008800008023091090240910A0250910B020E9425
:10089000CB054B015C018F2D902FAE2DBD2DBC01E2
:1008A000CD01209104023091050240910602509141
:1008B00007020E94CB059B01AC01C501B4010E9457
:1008C000AD046B017C01872D962DA52DB42DBC01A7
:1008D000CD0120910002309101024091020250911D
:1008E00003020E94CB059B01AC01C701B6010E9427
:1008F000AD04DC01CB018093180290931902A09300
:100900001A02B0931B020E948002C0901802D0907D
:100910001902E0901A02F0901B02C701B60120E014
:1009200030E048E453E40E94AD040E941105C62F54
:1009300060E070E088E493E4A70196010E94AC04B3
:100940000E9411058C2F0E946102A7EAB1E611975F
:10095000F1F700C00000E3CE5058BB27AA270ED005
:10096000E0C0D1D030F0D6D020F031F49F3F11F468
:100970001EF4C6C00EF4E095E7FBBCC0E92FE2D040
:1009800080F3BA17620773078407950718F071F4AC
:100990009EF5FAC00EF4E0950B2EBA2FA02D0B0198
:1009A000B90190010C01CA01A0011124FF27591BB4
:1009B00099F0593F50F4503E68F11A16F040A22FBA
:1009C000232F342F4427585FF3CF4695379527952B
:1009D000A795F0405395C9F77EF41F16BA0B620B2A
:1009E000730B840BBAF09150A1F0FF0FBB1F661F71
:1009F000771F881FC2F70EC0BA0F621F731F841FB4
:100A000048F4879577956795B795F7959E3F08F0D9
:100A1000B3CF9395880F08F09927EE0F9795879598
:100A2000089598D088F09F5790F0B92F9927B75123
:100A3000A0F0D1F0660F771F881F991F1AF0BA95A2
:100A4000C9F712C0B13081F09FD0B1E008959CC0C9
:100A5000672F782F8827B85F39F0B93FCCF3869598
:100A600077956795B395D9F73EF4909580957095F5
:100A700061957F4F8F4F9F4F0895E89409C097FB72
:100A80003EF490958095709561957F4F8F4F9F4F65
:100A90009923A9F0F92F96E9BB279395F6958795A9
:100AA00077956795B795F111F8CFFAF4BB0F11F46C
:100AB00060FF1BC06F5F7F4F8F4F9F4F16C0882313
:100AC00011F096E911C0772321F09EE8872F762F49
:100AD00005C0662371F096E8862F70E060E02AF08A
:100AE0009A95660F771F881FDAF7880F9695879576
:100AF00097F9089597F99F6780E870E060E008959E
:100B00009FEF80EC089500240A9416161706180625
:100B10000906089500240A94121613061406050601
:100B20000895092E0394000C11F4882352F0BB0F92
:100B300040F4BF2B11F460FF04C06F5F7F4F8F4FF5
:100B40009F4F089557FD9058440F551F59F05F3F30
:100B500071F04795880F97FB991F61F09F3F79F0DF
:100B600087950895121613061406551FF2CF469561
:100B7000F1DF08C0161617061806991FF1CF8695E3
:100B80007105610508940895E894BB2766277727C7
:100B9000CB0197F908950BD0C4CFB5DF28F0BADFA9
:100BA00018F0952309F0A6CFABCF1124EECFCADF02
:100BB000A0F3959FD1F3950F50E0551F629FF00170
:100BC000729FBB27F00DB11D639FAA27F00DB11DC9
:100BD000AA1F649F6627B00DA11D661F829F222752
:100BE000B00DA11D621F739FB00DA11D621F839FD9
:100BF000A00D611D221F749F3327A00D611D231FAF
:100C0000849F600D211D822F762F6A2F11249F57FC
:100C100050408AF0E1F088234AF0EE0FFF1FBB1F1F
:100C2000661F771F881F91505040A9F79E3F5105BE
:100C300070F060CFAACF5F3FECF3983EDCF386956F
:100C400077956795B795F795E7959F5FC1F7FE2B69
:100C5000880F911D9695879597F90895AA1BBB1B40
:100C600051E107C0AA1FBB1FA617B70710F0A61BAC
:100C7000B70B881F991F5A95A9F780959095BC01CD
:080C8000CD010895F894FFCFA7
:0C0C88009A99193FB81E053E00008040FC
:00000001FF
